S00B00004C45442E7372656344
S315000000000004002085000000250400008100000097
S3150000001081000000810000008100000081000000D6
S315000000200000000000000000000000008100000049
S315000000308100000000000000810000008100000037
S3150000004010B5054C237833B9044B13B10448AFF30C
S3150000005000800123237010BD1C0400200000000056
S3150000006084A2000108B5034B1BB103490348AFF353
S31500000070008008BD000000002004002084A20001CA
S3150000008000BE704708B500F035F800F05BFBFEE7F0
S31500000090F8B5174F05463E68A6B17C6806EB4606DE
S315000000A004EB860602E00C34B4420BD0637AAB4212
S315000000B0F9D1D4E900020021121A0C3400F076FBC3
S315000000C0B442F3D1BE6896B1FC6804EB061602E0B2
S315000000D01034A6420BD0637BAB42F9D1D4E90002BF
S315000000E0A168121A103400F069FBA642F3D1F8BDDC
S315000000F0E80700004FF47001264B274A70B5002030
S31500000100C3F888109A6000F045FB00F067F80120FC
S3150000011000F040FB214B83F30A880020FFF7B8FF6D
S3150000012000F046F800F0F2F8032000F0FDF94FF673
S31500000130FF7200241A4B03201A825A829A82DA82AC
S315000001401A835A839A83DA8300F0BEF9032000F0FB
S31500000150EBF9144B03205C609C60DC601C6100F0D2
S31500000160B3F9022000F016FB0120FFF791FF0E4DB8
S315000001700E4B5B1BA34206DD9E1055F8043B013473
S315000001809847A642F9DC00F06BF9BDE87040002004
S3150000019000F014B900ED00E00000000000000020AF
S315000001A0000D084000000E40C0080000C408000012
S315000001B0064B074993F826001A6A51F82030C2F315
S315000001C002620449D3400B60704700BF00E0014063
S315000001D00004002038040020704700BFF8B54AF23A
S315000001E0035001233F49404AA1F8FE03A2F8043117
S315000001F0B2F804319BB2002BFAD14FF0010C4FF448
S31500000200004120250920394C394F364B6760394F5C
S31500000210394EE760A2F800C1384A26606261A160E3
S3150000022093F826202161196A54F82220344EC1F32E
S315000002300261CA40326083F8135483F8A20093F82F
S3150000024080241AB993F88134990746D0254D95F83C
S315000002508034002B36D00022224B83F8812483F889
S31500000260802400231F4981F8323091F83C301A0768
S31500000270FBD54FF4E85000231A4A088581F82A3046
S3150000028092F83C309B06FBD5012005231649F12543
S3150000029081F81C011B49116282F8263092F826303B
S315000002A0106A54F82310C0F30260C1400024316084
S315000002B0F0204FF42541144B1D731C721873A2F8DD
S315000002C0FE13F8BD0121C82085F8801400F07EF8E1
S315000002D095F88034012BFBD1BDE74FF47A70FFF718
S315000002E07BFFBEE700E0014000C0014000040020A3
S315000002F000127A00001BB700002D31010095BA0AE2
S3150000030038040020211202210020004038B50025C3
S31500000310284C0121C82084F8285000F057F884F8AA
S31500000320245094F82430002BFBD194F82430214932
S3150000033043F0020384F8243091F82430C3F34000DC
S315000003409B07F9D41B4A81F8220092F8223003F069
S31500000350FF00002BF9D192F84030164960F3C7131D
S3150000036082F8403091F84030DB09FBD191F8420029
S31500000370104A63F3C71081F8420092F84230DB0955
S31500000380FBD192F844000B4963F3C71082F844008E
S3150000039091F84430C3F3C014DB09F9D1012000F011
S315000003A0C3F8054B012083F8BB44BDE8384000F094
S315000003B08BB800BF0030084000E00140704700BF26
S315000003C0A0F101000028FBD1704700BF4FF47A73FB
S315000003D010B400FB01F1114C114A2468B2FBF4F28F
S315000003E0A1FB03043CB9B0FBF2F0800860B15DF8F4
S315000003F0044BFFF7E5BF9200B1FBF2F1A1FB03133B
S315000004002BB908460028F2D15DF8044B70474FF02F
S31500000410FF3C5DF8044B6046FFF7D2BF380400206E
S3150000042000CA9A3B70B500240B4B0C4EB3F8202142
S31500000430B3F84051ADB2154025FA04F3DB0704D5F5
S3150000044056F82430E0B203B1984701340E2CF3D1AC
S31500000450014BA3F8305170BD006000403C04002001
S3150000046010B5032084B000F05FF84FF0FF326FF054
S31500000470FF011148114B04889964CDE901220392CA
S315000004801CB16FF001031A4601930C490C4B0A6725
S31500000490C3F88022029A03204A67C3F88422039A8B
S315000004A08A67C3F8882200F00FF814B1054BC3F829
S315000004B0004304B010BD00BFD80700000080004014
S315000004C000E100E000600040EFF31081012383F3B8
S315000004D01088124B33F8102092B22AB133F810204C
S315000004E0013A92B223F8102033F810309BB293B938
S315000004F00B4A10B4B2F8FE330A4C9BB234F8100023
S3150000050043F4254323EA0003A2F8FE3381F310885F
S315000005105DF8044B704781F310887047780400201B
S3150000052000E00140DC07000030B4EFF31081012346
S3150000053083F310880E4A32F810309BB26BB90D4C1B
S315000005400D4DB4F8FE3335F810C09BB243EA0C03E8
S3150000055043F425439BB2A4F8FE3332F8103001333E
S315000005609BB222F8103081F3108830BC704700BF70
S315000005707804002000E00140DC0700000120CBB237
S31500000580984080B202B900040B0A5B0103F1804374
S3150000059003F5002398600020704700BF2DE9F84F4F
S315000005A00388DBB182464FF0000B4FF00109DFF8FC
S315000005B0D0800024304D4FEACB07DAF8043035F806
S315000005C0022BD919898891420AD00134032CF4D11F
S315000005D0BAF800300BF1010B5B45EAD8BDE8F88F9D
S315000005E0DB5909FA04F603F0B853B3F1807FF6B28B
S315000005F098F8BB3413D0334231D1204A04F1200697
S3150000060012F81630DB09E0D012F81630012123F07B
S315000006108003C82002F81630FFF7D8FED5E733422C
S3150000062011D0164A04F1200112F81130DB09CCD1A1
S3150000063012F81130C82043F0800302F8113001216E
S31500000640FFF7C4FEC1E70120FFF76EFF98F8BB3441
S315000006500120334388F8BB34FFF736FFE1E701207A
S31500000660FFF762FF98F8BB34012023EA060388F8F7
S31500000670BB34FFF729FFC0E734080000003008400C
S3150000068000E00140F8B50446FFF788FFEFF310825B
S31500000690012383F31088234F3B681BB92249CB7093
S315000006A04023CB703B6801333B6082F3108823887C
S315000006B02BB361681D4C01EBC30E06E01B0108312C
S315000006C013448E4544F8230019D008688A88C50368
S315000006D04FEA1223D2B2F1D502EB031C54F82C6078
S315000006E01B01083120F4803526F4803613448E45EC
S315000006F044F82C6044F82C5044F82300E5D1EFF37D
S315000007001082012383F310883B6813B13B68013BD9
S315000007103B603B681BB980200349CB70C87082F3ED
S315000007201088F8BD74040020000D08400008084039
S3150000073008B5034B03600846FFF7A4FF002008BD79
S3150000074054524F5008B500F003F8002008BD00BF12
S31500000750012240F20B1108B50D48FFF70FFF0022EA
S3150000076040F20B110A48FFF709FF4FF47A714FF474
S31500000770FA70FFF72BFE012240F20B110448FFF737
S31500000780FDFE4FF47A714FF4FA70FFF71FFEE6E7AD
S3150000079084040020022800D0704702490248FFF76F
S315000007A0C7BF00BF3C080000840400200244034683
S315000007B0934200D1704703F8011BF9E70A44431E30
S315000007C0914200D1704710B511F8014B914203F8E0
S315000007D0014FF9D110BD0000000000000100020029
S315000007E0080010002000000001000000280800009A
S315000007F003000000F80700000000002000000020B1
S315000008000000006000010C03000000200000002032
S315000008100000000800000203000000200000002085
S3150000082040000000000001031C0400208C0400208E
S315000008300000000302040304040400000400000096
S315000008404808000000000000000001000801000048
S31500000850040000000A010000040000000B01000073
S3150000086000000100000300004275696C742077697E
S3150000087074682052656E6573617320416476616E9B
S3150000088063656420466C657869626C6520536F66A3
S315000008907477617265205061636B61676520766568
S315000008A07273696F6E20362E332E3000362E332E3D
S30D000008B0300000000000030601
S309000008B8F8B500BFCA
S309000008BCF8B500BFC6
S309000008C065000000C9
S309000008C441000000E9
S3090100A100FFFFFFFF58
S3090100A200FFFDFFFF59
S3090100A280F8F8FFFFE5
S7050000008575
